S02B00004144445245535341424C455F4C45445F53545249505F574954485F49525F52454D4F54452E7372655D
S11300000C9440000C945D000C945D000C945D0015
S11300100C945D000C945D000C945D000C945D00E8
S11300200C945D000C945D000C945D000C945D00D8
S11300300C945D000C945D000C945D000C945D00C8
S11300400C945D000C945D000C945D000C945D00B8
S11300500C945D000C945D000C945D000C945D00A8
S11300600C945D000C945D0074029702BB02DE02E6
S11300700103260349036C039103B4034F4B0000AF
S113008011241FBECFEFD8E0DEBFCDBF11E0A0E04A
S1130090B1E0E8E4F5E102C005900D92A43BB1079C
S11300A0D9F722E0A4EBB1E001C01D92A132B2075E
S11300B0E1F70E9438050C94A20A0C9400009C01FC
S11300C0329522952F7023273F702327A901440FCF
S11300D0551F220F331F220F331F220F331F240FEC
S11300E0351F8F709927820F931F0895CF93DF9345
S11300F060ED80E00E94CD060E94B70681ED0E946B
S1130100C306C0E0D0E00BC00E94DE06FE01EE0F85
S1130110FF1FEC53FE4F90E0918380832196C13101
S1130120D10590F30E94E80690E09093E901809352
S1130130E8010E94BF0680E090E012C09C012F5F9E
S11301403F4F880F991FFC01EC53FE4F8081918132
S1130150F901EE0FFF1FE651FE4F91838083C90121
S11301608031910558F3DF91CF9108958091C401B6
S11301709091C5010E945F0008958091C6019091FD
S1130180C7010E945F0008958091C8019091C90140
S11301900E945F0008958091CA019091CB010E9452
S11301A05F0008958091CC019091CD010E945F0081
S11301B008958091CE019091CF010E945F0008952F
S11301C08091D0019091D1010E945F0008950F9316
S11301D01F93CF93DF9300D0CDB7DEB7DC018C91B2
S11301E0982F92959F7099838F708A8330E08DC089
S11301F0332319F0313041F404C08E010F5F1F4FD7
S113020003C08E010E5F1F4F20E03CC0F8018081C7
S1130210422F50E090E0022E02C0959587950A94F3
S1130220E2F780FF17C0DA01AA0FBB1FAC5FBE4F15
S11302300D90BC91A02D40505F4F81E090E0FA01F9
S1130240008002C0880F991F0A94E2F79C91892BC1
S11302508C9317C0DA01AA0FBB1FAC5FBE4F0D9081
S1130260BC91A02D40505F4F81E090E0FA010080E6
S113027002C0880F991F0A94E2F780959C91892304
S11302808C932F5F243010F261110FC08BB1886002
S11302908BB9FAE6FA95F1F700C08BB1877F8BB979
S11302A08AE68A95F1F700C02FC06130C9F4311194
S11302B003C08BB184608BB98BB188608BB99AE62B
S11302C09A95F1F700C08BB1877F8BB9313019F45F
S11302D08BB18B7F8BB9AAE6AA95F1F700C014C045
S11302E0623091F48BB188608BB9EFE0F7E231971B
S11302F0F1F700C000008BB1877F8BB98FE097E2E4
S11303000197F1F700C000003F5F323008F470CF6E
S11303100F900F90DF91CF911F910F910895CF937C
S1130320DF931F92CDB7DEB798E09983813011F443
S11303308CE08983613021F489818260898303C0E0
S113034089818D7F8983413021F48981816089830A
S113035003C089818E7F898360E0CE0101960E946B
S1130360E7000F90DF91CF910895EF92FF921F93D2
S1130370CF93DF931F92CDB7DEB77B01880F880F31
S1130380880F8064898360E0CE0101960E94E700B3
S113039010E008C061E0C7010E94E7008FEFE81A8F
S11303A0F80A1F5F1830B0F30F90DF91CF911F91BF
S11303B0FF90EF9008951F93CF93DF9300D0CDB7B4
S11303C0DEB78FE295E70197F1F700C0000080E205
S11303D0898383E38A8310E013C0111106C060E0AF
S11303E0CE0102960E94E7000AC0113041F48A81CE
S11303F081508A8360E0CE0102960E94E7001F5F6D
S1130400123058F389818F7E8C60898360E0CE013D
S113041001960E94E70010E00EC0612F70E0660FA5
S1130420771F660F771F660F771F645F7E4F812FDC
S11304300E94B5011F5F183080F30F900F90DF9179
S1130440CF911F910895CF93DF9300D0CDB7DEB73E
S11304508A8361110CC040584983CE0101960E94E1
S1130460E70061E0CE0102960E94E7000EC0613011
S113047061F44054498360E0CE0101960E94E70094
S113048061E0CE0102960E94E7000F900F90DF9189
S1130490CF910895FF920F931F93CF93DF938C0115
S11304A0F62ED42FC0E006C04C2F4D0F6F2D0E94A6
S11304B02302CF5FF801EC0FF11D80818111F4CF8D
S11304C0DF91CF911F910F91FF9008951F93CF93C8
S11304D0DF9390E08A30910508F068C1C62FFC01D3
S11304E0EC5CFF4F0C947F07462F60E080E00E9495
S11304F0230211E01C0F412F60E081E00E942302DF
S1130500D2E0DC0F4D2F60E082E00E9423024C2FEA
S113051061E083E00E942302412F61E084E00E94B5
S113052023024D2F61E085E00E9423023FC1462F44
S113053060E081E00E94230211E01C0F412F60E083
S113054082E00E942302D2E0DC0F4D2F60E08BE5B5
S113055091E00E944A024C2F61E084E00E94230251
S1130560412F61E087E00E9423024D2F61E084E087
S11305700E9423021BC1462F60E086E00E942302F2
S113058011E01C0F412F60E086E00E942302D2E0BC
S1130590DC0F4D2F60E082E00E9423024C2F61E0CB
S11305A083E00E942302412F61E084E00E94230241
S11305B04D2F61E084E00E942302F8C0462F60E0E2
S11305C086E00E94230211E01C0F412F60E086E0C8
S11305D00E942302D2E0DC0F4D2F60E082E00E94F3
S11305E023024C2F61E084E00E942302412F61E04A
S11305F084E00E9423024D2F61E085E00E942302E3
S1130600D5C0462F60E083E00E94230211E01C0F56
S1130610412F60E084E00E942302D2E0DC0F4D2FE2
S113062060E087E00E9423024C2F61E08BE591E0BB
S11306300E944A02412F61E08BE591E00E944A0248
S11306404D2F61E087E00E942302B0C0462F60E096
S113065083E00E94230211E01C0F412F60E086E03A
S11306600E942302D2E0DC0F4D2F60E086E00E945E
S113067023024C2F61E084E00E942302412F61E0B9
S113068084E00E9423024D2F61E085E00E94230252
S11306908DC0462F60E080E00E94230211E01C0F11
S11306A0412F60E086E00E942302D2E0DC0F4D2F50
S11306B060E086E00E9423024C2F61E083E00E9408
S11306C02302412F61E084E00E9423024D2F61E068
S11306D085E00E9423026AC0462F60E081E00E9408
S11306E0230211E01C0F412F60E081E00E942302ED
S11306F0D2E0DC0F4D2F60E082E00E9423024C2FF9
S113070061E08BE591E00E944A02412F61E08BE5B4
S113071091E00E944A024D2F61E087E00E9423028B
S113072045C0462F60E080E00E94230211E01C0FC8
S1130730412F60E086E00E942302D2E0DC0F4D2FBF
S113074060E082E00E9423024C2F61E083E00E947B
S11307502302412F61E084E00E9423024D2F61E0D7
S113076085E00E94230222C0462F60E080E00E94C0
S1130770230211E01C0F412F60E086E00E94230257
S1130780D2E0DC0F4D2F60E082E00E9423024C2F68
S113079061E084E00E942302412F61E084E00E9432
S11307A023024D2F61E085E00E942302DF91CF9167
S11307B01F91089585E085BD85B1846085B908954C
S11307C01A99FECF96B516BC28B180E2822788B963
S11307D0913240F01092BD0160E070E080E040E0B2
S11307E050E032C08091BD018F5F8093BD018530A0
S11307F0C9F51092BD018091B9019091BA01089593
S11308001A9BFECF1A99FECF96B516BC9D3010F0F8
S113081031E001C030E028B190E2922798B98830E5
S113082020F090EF980F983018F4440F551F432B85
S113083098EF980F983020F098EE980F983018F4AD
S1130840660F771F632B8F5F8032D0F260957095AF
S11308504617570751F45093BA014093B901842FB6
S1130860952F089580E090E0089580E090E0089549
S113087086B58831E8F316BC83B1582F547098B10B
S113088080E2892788B986B58630E8F316BC40E053
S113089020E030E025C0220F331F98B180E2892781
S11308A088B993B1947004C086B5883008F03FC00D
S11308B083B184709817C1F316BC86B58330E8F30E
S11308C016BC68B180E2862788B91A9921601A9B00
S11308D002C091112FC086B58630E8F316BC4F5F75
S11308E04B30C8F28091B7019091B80128173907AD
S11308F081F48091B60158130CC08091BD018F5FC3
S11309008093BD018530C9F41092BD01822F932FCD
S113091008958091B60158131092BD013093B80127
S11309202093B7015093B601822F932F089580E04E
S113093090E0089580E090E0089580E090E00895CC
S113094090E020E030E01BC086B58031A8F51A9B0A
S1130950FBCF03C086B5803190F51A99FBCF46B51D
S113096050E016BCBA01635071096D30710550F541
S1130970220F331F4C30510508F021609F5F9C30DB
S113098030F38091B4019091B5012817390769F4C7
S11309908091BD0191E0980F9093BD018530A9F439
S11309A01092BD01822F932F08953093B5012093A7
S11309B0B401822F932F089580E090E0089580E0A1
S11309C090E0089580E090E0089580E090E008953C
S11309D086B590E090930E0280930D0216BC809130
S11309E00D0290910E029C012754310925303105E6
S11309F070F48EE480930C028091BB019091BC0151
S1130A000E94E0039093BC018093BB0128C09C0129
S1130A10275031092230310570F482E580930C02AD
S1130A208091BB019091BC010E9438049093BC0159
S1130A308093BB0114C04097059770F483E58093BD
S1130A400C028091BB019091BC010E94A004909380
S1130A50BC018093BB0103C085E580930C028091A7
S1130A60BB019091BC011092BC011092BB0108958E
S1130A70CF93DF93CDB7DEB76A970FB6F894DEBF96
S1130A800FBECDBF8FEF8AB91BB80E94DA030E9454
S1130A906D070E94DB010E94B30640E060E081E044
S1130AA00E948F0140E060E08CE491E00E944A02E1
S1130AB040E061E08CE491E00E944A0280E090E032
S1130AC00E94550A90931402809313020E947600A8
S1130AD00E94B60090931C0280931B02209119027D
S1130AE030911A028217930709F4E7C090931A020F
S1130AF0809319020E94BD009093180280931702FC
S1130B000E94C4009093200280931F020E94CB0095
S1130B1090931202809311020E94D20090931E02BD
S1130B2080931D020E94D9009093100280930F02BB
S1130B300E94E000909316028093150280911B029C
S1130B4080FF0DC047E060E08DE591E00E944A021D
S1130B5047E061E080E691E00E944A020CC047E071
S1130B6060E080E691E00E944A0247E061E08DE5A2
S1130B7091E00E944A0220911F0230912002ADECC4
S1130B80BCEC0E94850796958795969587959695D2
S1130B90879560E00E94660240911F023091200216
S1130BA0242FADECBCEC0E9485079695879596950D
S1130BB08795969587959C01220F331F880F991F5F
S1130BC0880F991F880F991F820F931F64E0481B99
S1130BD0842F0E9466022091170230911802ADEC16
S1130BE0BCEC0E9485079695879596958795969572
S1130BF0879569E00E9466024091170230911802BD
S1130C00242FADECBCEC0E948507969587959695AC
S1130C108795969587959C01220F331F880F991FFE
S1130C20880F991F880F991F820F931F6DE0481B2F
S1130C30842F0E946602809116028F938091150280
S1130C408F93809110028F9380910F028F938091E4
S1130C501E028F9380911D028F93809112028F93B5
S1130C60809111028F9380911C028F9380911B02BB
S1130C708F93809118028F93809117028F938091A4
S1130C8020028F9380911F028F9383E691E09F93BC
S1130C908F931F928AE18F938E010F5F1F4F1F93D3
S1130CA00F930E949407C8010E94F9060E946607E8
S1130CB00FB6F894DEBF0FBECDBF1A9B07CF0E94BC
S1130CC0E8048C01892B09F401CF8091C201909131
S1130CD0C3010817190761F42091BE013091BF01C7
S1130CE08091C0019091C1012817390709F4EECE13
S1130CF08091C0019091C1019093BF018093BE0186
S1130D00A80160E070E080E00E9406070E94660788
S1130D1040E060E08CE491E00E944A0240E061E03F
S1130D208CE491E00E944A021F930F938AE991E0B8
S1130D309F938F931F928BE08F93CE0101967C013A
S1130D409F938F930E94940740E060E0C7010E9444
S1130D504A021093C3010093C2010FB6F894DEBF98
S1130D600FBECDBFB3CE80E28093B800089584EA6D
S1130D708093BC008091BC008823E4F7089584E943
S1130D808093BC0008958093BB0084E88093BC00EA
S1130D908091BC008823E4F70895CF93DF93C82F94
S1130DA0D62F0E94B7068D2F0E94C3068C2F0E9457
S1130DB0C3060E94BF06DF91CF91089584EC80930F
S1130DC0BC008091BC008823E4F78091BB000895A7
S1130DD084E88093BC008091BC008823E4F7809170
S1130DE0BB0008959091C00095FFFCCF8093C6008E
S1130DF00895CF93DF93EC0103C021960E94F2067D
S1130E0088818111FACFDF91CF910895CF93DF9339
S1130E10CDB7DEB72B970FB6F894DEBF0FBECDBFAC
S1130E209BE0E8EAF1E0DE01119601900D929A95BB
S1130E30E1F7813011F092E001C094E0823031F5A5
S1130E4098E024C0842F8F708A3060F4E92FF0E09A
S1130E50319621E030E02C0F3D1FE20FF31F805D3F
S1130E6080830BC0E92FF0E0319621E030E02C0FB5
S1130E703D1FE20FF31F895C8083689413F8769515
S1130E806795579547951694D1F791509111DACFFC
S1130E90CE0101960E94F9062B960FB6F894DEBF98
S1130EA00FBECDBFDF91CF910895CF93DF93EC01B7
S1130EB005C02196FC0184910E94F206CE01FE0138
S1130EC024912111F6CFDF91CF9108958DE00E94F6
S1130ED0F2068AE00E94F20608951092C50084E3A7
S1130EE08093C40088E98093C1008EE88093C20097
S1130EF08CE790E00E9455070E9466070895EE0F64
S1130F00FF1F0590F491E02D0994A29FB001B39FB7
S1130F10C001A39F700D811D1124911DB29F700DFE
S1130F20811D1124911D0895AEE0B0E0EAE9F7E0D7
S1130F300C94790A0D891E898F89988D26E02C835B
S1130F401A83098397FF02C080E090E801979E838B
S1130F508D83AE01455E5F4F698D7A8DCE0101961A
S1130F600E94C4074D815E8157FD0AC02F813885D8
S1130F70421753070CF49A01F801E20FF31F108291
S1130F802E96E4E00C94950AABE0B0E0EAECF7E0CE
S1130F900C946B0A6C017B018A01FC011782168296
S1130FA0838181FFCCC1CE0101963C01F60193817E
S1130FB0F70193FD859193FF81917F01882309F4C3
S1130FC0BAC1853239F493FD859193FF81917F01F4
S1130FD0853229F4B60190E00E94BB09E7CF912C39
S1130FE0212C312CFFE1F315D8F08B3279F038F451
S1130FF0803279F08332A1F4232D20611DC08D321B
S113100061F0803369F4232D216016C0832D826042
S1131010382EE32DE4603E2E2AC0F32DF8601DC067
S113102037FC2DC020ED280F2A3040F08E32B9F461
S113103036FC81C1232D2064322E19C036FE06C031
S11310408AE0989E200D1124922E11C0EAE02E9E73
S1131050200D1124222EF32DF0623F2E08C08C3671
S113106021F4832D8068382E02C0883641F4F701BC
S113107093FD859193FF81917F018111B3CF982FC7
S11310809F7D9554933028F40C5F1F4F9FE3998301
S11310900DC0833631F0833771F0833509F059C0C0
S11310A021C0F801808189830E5F1F4F88248394B7
S11310B0912C530113C02801F2E04F0E511CF8018A
S11310C0A080B18036FE03C0692D70E002C06FEFCE
S11310D07FEFC5010E94B0094C018201F32DFF7717
S11310E03F2E16C0280122E0420E511CF801A080B8
S11310F0B18036FE03C0692D70E002C06FEF7FEF50
S1131100C5010E94A5094C01F32DF0683F2E820110
S113111033FC1BC0822D90E088169906B0F4B6010A
S113112080E290E00E94BB092A94F4CFF50137FCD9
S1131130859137FE81915F01B60190E00E94BB0961
S113114021102A9421E0821A91088114910471F7E4
S1131150E8C0843611F0893641F5F80137FE07C03E
S113116060817181828193810C5F1F4F08C060810F
S11311707181072E000C880B990B0E5F1F4FF32D06
S1131180FF763F2E97FF09C09095809570956195E5
S11311907F4F8F4F9F4FF0683F2E2AE030E0A3012E
S11311A00E94F709882E861845C0853731F4232D0F
S11311B02F7EB22E2AE030E025C0932D997FB92EE0
S11311C08F36C1F018F4883579F0B5C0803719F03E
S11311D0883721F0B0C0E92FE061BE2EB4FE0DC007
S11311E0FB2DF460BF2E09C034FE0AC0292F2660EF
S11311F0B22E06C028E030E005C020E130E002C095
S113120020E132E0F801B7FE07C06081718182817C
S113121093810C5F1F4F06C06081718180E090E074
S11312200E5F1F4FA3010E94F709882E8618FB2D1D
S1131230FF773F2E36FE0DC0232D2E7FA22E89145C
S113124058F434FE0BC032FC09C0832D8E7EA82EC8
S113125005C0B82CA32C03C0B82C01C0B92CA4FE23
S11312600FC0FE01E80DF11D8081803321F49A2D19
S1131270997EA92E09C0A2FE06C0B394B39404C0FB
S11312808A2D867809F0B394A3FC11C0A0FE06C091
S1131290B21488F4280C922C9B180EC0B21460F47B
S11312A0B60180E290E00E94BB09B394F7CFB21478
S11312B018F42B1802C0982C212CA4FE10C0B601DF
S11312C080E390E00E94BB09A2FE17C0A1FC03C00A
S11312D088E790E002C088E590E0B6010CC08A2D52
S11312E0867859F0A1FE02C08BE201C080E2A7FC1F
S11312F08DE2B60190E00E94BB09891438F4B6016E
S113130080E390E00E94BB099A94F7CF8A94F3019A
S1131310E80DF11D8081B60190E00E94BB098110A7
S1131320F5CF222009F442CEB60180E290E00E947B
S1131330BB092A94F6CFF6018681978102C08FEF0C
S11313409FEF2B96E2E10C94870AFC010590615013
S113135070400110D8F7809590958E0F9F1F0895C7
S1131360FC016150704001900110D8F78095909570
S11313708E0F9F1F08950F931F93CF93DF93FB014D
S1131380238121FD03C08FEF9FEF2CC022FF16C0E5
S113139046815781248135814217530744F4A08143
S11313A0B1819D012F5F3F4F318320838C93268130
S11313B037812F5F3F4F3783268314C08B01EC01A5
S11313C0FB010084F185E02D0995892BE1F6D80114
S11313D016968D919C911797019617969C938E93D0
S11313E01697CE01DF91CF911F910F910895FA01C5
S11313F0AA27283051F1203181F1E8946F936E7F50
S11314006E5F7F4F8F4F9F4FAF4FB1E03ED0B4E040
S11314103CD0670F781F891F9A1FA11D680F791F81
S11314208A1F911DA11D6A0F711D811D911DA11D92
S113143020D009F468943F912AE0269F11243019A2
S1131440305D3193DEF6CF010895462F4770405D3D
S11314504193B3E00FD0C9F7F6CF462F4F70405DEC
S11314604A3318F0495D31FD4052419302D0A9F747
S1131470EACFB4E0A6959795879577956795BA9541
S1131480C9F700976105710508959B01AC010A2E07
S113149006945795479537952795BA95C9F7620FDE
S11314A0731F841F951FA01D0895A8E1B0E042E0BA
S11314B050E00C945D0ADC01CB01FC01F999FECFEC
S11314C006C0F2BDE1BDF89A319600B40D924150C8
S11314D05040B8F708952F923F924F925F926F92C7
S11314E07F928F929F92AF92BF92CF92DF92EF92B0
S11314F0FF920F931F93CF93DF93CDB7DEB7CA1B31
S1131500DB0B0FB6F894DEBF0FBECDBF09942A885B
S1131510398848885F846E847D848C849B84AA8403
S1131520B984C884DF80EE80FD800C811B81AA8190
S1131530B981CE0FD11D0FB6F894DEBF0FBECDBF5B
S10B1540ED010895F894FFCFBA
S1131548040506072B002B002B002B00070F1F1F79
S11315581F1F1F1F1F1F1F00000000001C1E1F1F2E
S11315681F1F1F1F1F1F1F1F1F1F0F070000000023
S1131578001F1F1F1F1F1F1F1F1F1E1C1F1F1F00B1
S113158800001F1F1F1F1F1F1F1F1F1F2020202099
S1131598202020202020202020202020002A200075
S11315A8202A0054494D4520253032643A253032EA
S11315B8643A253032642025303264202530326480
S11315C820253032642025303264202530326420CE
S11315D825303264202530326400434F44453A2094
S11315E830782530325820003078202020202020E0
S10715F820200000AB
S9030000FC
