S02B00004144445245535341424C455F4C45445F53545249505F574954485F49525F52454D4F54452E7372655D
S11300000C9436000C9453000C9453000C9453003D
S11300100C9453000C9453000C9453000C94530010
S11300200C9453000C9453000C9453000C94530000
S11300300C9453000C9453000C9453000C945300F0
S11300400C9453000C9453000C9453000C945300E0
S11300500C9453000C9453000C9453000C945300D0
S11300600C9453000C9453004F4B000011241FBEFA
S1130070CFEFD8E0DEBFCDBF11E0A0E0B1E0EAE011
S1130080F5E002C005900D92AC30B107D9F721E03C
S1130090ACE0B1E001C01D92A431B207E1F70E94C7
S11300A075010C9483020C9400001A99FECF96B546
S11300B016BC28B180E2822788B9933540F01092AB
S11300C0130160E070E080E040E050E032C08091D5
S11300D013018F5F809313018530C9F510921301CA
S11300E0809111019091120108951A9BFECF1A99E3
S11300F0FECF96B516BC913210F031E001C030E06D
S113010028B190E2922798B9883020F090EF980FA8
S1130110983018F4440F551F432B98EF980F9830DC
S113012020F098EE980F983018F4660F771F632B21
S11301308F5F8032D0F2609570954617570751F45F
S11301405093120140931101842F952F089580E05C
S113015090E0089580E090E0089586B58D33E8F34B
S113016016BC83B1582F547098B180E2892788B99E
S113017086B58131E8F316BC40E020E030E025C0CC
S1130180220F331F98B180E2892788B993B1947004
S113019004C086B5843108F03FC083B184709817D9
S11301A0C1F316BC86B58730E8F316BC68B180E2AB
S11301B0862788B91A9921601A9B02C091112FC011
S11301C086B58F30E8F316BC4F5F4B30C8F2809190
S11301D00F01909110012817390781F480910E01C5
S11301E058130CC0809113018F5F809313018530E5
S11301F0C9F410921301822F932F089580910E0158
S11302005813109213013093100120930F0150934F
S11302100E01822F932F089580E090E0089580E0EE
S113022090E0089580E090E0089590E020E030E0D0
S11302301BC086B58832A8F51A9BFBCF03C086B5D0
S1130240883290F51A99FBCF46B550E016BCBA0136
S1130250675071096132710550F5220F331F4D311A
S1130260510508F021609F5F9C3030F380910C01B0
S113027090910D012817390769F48091130191E0D9
S1130280980F909313018530A9F410921301822FD3
S1130290932F089530930D0120930C01822F932FF7
S11302A0089580E090E0089580E090E0089580E073
S11302B090E0089580E090E0089588B1886088B95E
S11302C016BC86B5FECF84B1826084B90E945D01FC
S11302D085E085BD85B1846085B985B1816085B9C6
S11302E08FEF87B90E94480208950E94680180E058
S11302F090E00E945A028C0180E780936600C0E07F
S1130300D0E098B180E2892788B91A99FECF98B1D4
S113031080E2892788B916BC1A9BFECF86B590E087
S113032016BC9C01205B31092F30310530F4CE011D
S11303300E945500EC018EE414C09C012051310947
S11303402730310530F4CE010E94AD00EC0182E586
S113035008C088970E97A8F6CE010E941501EC01FB
S113036083E5209771F2189907C0BE0180E090E000
S11303700E9460020E945D01C017D10719F4CE01EA
S11303800E94630190E00E94CD01BE0180E090E0F4
S11303900E94E1010E944102B4CF9091C00095FFF8
S11303A0FCCF8093C6000895CF93DF93EC0103C084
S11303B021960E94CD0188818111FACFDF91CF91DE
S11303C00895CF93DF93CDB7DEB72B970FB6F8948C
S11303D0DEBF0FBECDBF9BE0E0E0F1E0DE01119691
S11303E001900D929A95E1F7813011F092E001C0ED
S11303F094E0823031F598E024C0842F8F708A30E5
S113040060F4E92FF0E0319621E030E02C0F3D1F3D
S1130410E20FF31F805D80830BC0E92FF0E031967B
S113042021E030E02C0F3D1FE20FF31F895C808335
S1130430689413F876956795579547951694D1F770
S113044091509111DACFCE0101960E94D4012B96DE
S11304500FB6F894DEBF0FBECDBFDF91CF910895E4
S1130460CF93DF93EC0105C02196FC0184910E9497
S1130470CD01CE01FE0124912111F6CFDF91CF9160
S113048008958DE00E94CD018AE00E94CD01089577
S11304901092C50080E28093C40088E98093C10073
S11304A08EE88093C20088E690E00E9430020E94A9
S11304B041020895A8E1B0E042E050E00C946702E4
S11304C00E947502272F0C947602DC01CB01FC01FB
S11304D0F999FECF06C0F2BDE1BDF89A319600B499
S11304E00D9241505040B8F70895262FF999FECF48
S11304F01FBA92BD81BD20BD0FB6F894FA9AF99A3D
S10D05000FBE01960895F894FFCF92
S10F050A30782020202020202020000039
S9030000FC
