S02B00004144445245535341424C455F4C45445F53545249505F574954485F49525F52454D4F54452E7372655D
S11300000C9440000C945D000C945D000C945D0015
S11300100C945D000C945D000C945D000C945D00E8
S11300200C945D000C945D000C945D000C945D00D8
S11300300C945D000C945D000C945D000C945D00C8
S11300400C945D000C945D000C945D000C945D00B8
S11300500C945D000C945D000C945D000C945D00A8
S11300600C945D000C945D00EC010F023302560207
S113007079029E02C102E40208032B034F4B0000E5
S113008011241FBECFEFD8E0DEBFCDBF11E0A0E04A
S1130090B1E0E2E7F3E102C005900D92AC37B1079D
S11300A0D9F721E0ACE7B1E001C01D92A839B2074D
S11300B0E1F70E94AF040C94B7090C9400000F936D
S11300C01F93CF93DF9300D0CDB7DEB7DC018C91C3
S11300D0982F92959F7099838F708A8330E08DC09A
S11300E0332319F0313041F404C08E010F5F1F4FE8
S11300F003C08E010E5F1F4F20E03CC0F8018081D9
S1130100422F50E090E0022E02C0959587950A9404
S1130110E2F780FF17C0DA01AA0FBB1FAC5FBE4F26
S11301200D90BC91A02D40505F4F81E090E0FA010A
S1130130008002C0880F991F0A94E2F79C91892BD2
S11301408C9317C0DA01AA0FBB1FAC5FBE4F0D9092
S1130150BC91A02D40505F4F81E090E0FA010080F7
S113016002C0880F991F0A94E2F780959C91892315
S11301708C932F5F243010F261110FC08BB1886013
S11301808BB9FAE6FA95F1F700C08BB1877F8BB98A
S11301908AE68A95F1F700C02FC06130C9F43111A5
S11301A003C08BB184608BB98BB188608BB99AE63C
S11301B09A95F1F700C08BB1877F8BB9313019F470
S11301C08BB18B7F8BB9AAE6AA95F1F700C014C056
S11301D0623091F48BB188608BB9EFE0F7E231972C
S11301E0F1F700C000008BB1877F8BB98FE097E2F5
S11301F00197F1F700C000003F5F323008F470CF80
S11302000F900F90DF91CF911F910F910895CF938D
S1130210DF931F92CDB7DEB798E09983813011F454
S11302208CE08983613021F489818260898303C0F1
S113023089818D7F8983413021F48981816089831B
S113024003C089818E7F898360E0CE0101960E947C
S11302505F000F90DF91CF910895EF92FF921F936B
S1130260CF93DF931F92CDB7DEB77B01880F880F42
S1130270880F8064898360E0CE0101960E945F004C
S113028010E008C061E0C7010E945F008FEFE81A28
S1130290F80A1F5F1830B0F30F90DF91CF911F91D0
S11302A0FF90EF9008951F93CF93DF9300D0CDB7C5
S11302B0DEB78FE295E70197F1F700C0000080E216
S11302C0898383E38A8310E013C0111106C060E0C0
S11302D0CE0102960E945F000AC0113041F48A8167
S11302E081508A8360E0CE0102960E945F001F5F06
S11302F0123058F389818F7E8C60898360E0CE014F
S113030001960E945F0010E00EC0612F70E0660F3E
S1130310771F660F771F660F771F645F7E4F812FED
S11303200E942D011F5F183080F30F900F90DF9112
S1130330CF911F910895CF93DF9300D0CDB7DEB74F
S11303408A8361110CC040584983CE0101960E94F2
S11303505F0061E0CE0102960E945F000EC0613032
S113036061F44054498360E0CE0101960E945F002D
S113037061E0CE0102960E945F000F900F90DF9122
S1130380CF910895FF920F931F93CF93DF938C0126
S1130390F62ED42FC0E006C04C2F4D0F6F2D0E94B7
S11303A09B01CF5FF801EC0FF11D80818111F4CF27
S11303B0DF91CF911F910F91FF9008951F93CF93D9
S11303C0DF9390E08A30910508F067C1C62FFC01E5
S11303D0EC5CFF4F0C94A306462F60E080E00E9483
S11303E09B0111E01C0F412F60E081E00E949B0102
S11303F0D2E0DC0F4D2F60E082E00E949B014C2F85
S113040061E083E00E949B01412F61E084E00E944F
S11304109B014D2F61E085E00E949B013EC1462F68
S113042060E081E00E949B0111E01C0F412F60E01D
S113043082E00E949B01D2E0DC0F4D2F60E08BE54F
S113044091E00E94C2014C2F61E084E00E949B0174
S1130450412F61E087E00E949B014D2F61E084E021
S11304600E949B011AC1462F60E086E00E949B0116
S113047011E01C0F412F60E086E00E949B01D2E056
S1130480DC0F4D2F60E082E00E949B014C2F61E065
S113049083E00E949B01412F61E084E00E949B0164
S11304A04D2F61E084E00E949B01F7C0462F60E07D
S11304B086E00E949B0111E01C0F412F60E086E062
S11304C00E949B01D2E0DC0F4D2F60E082E00E948D
S11304D09B014C2F61E084E00E949B01412F61E06D
S11304E084E00E949B014D2F61E085E00E949B0106
S11304F0D4C0462F60E083E00E949B0111E01C0FF2
S1130500412F60E084E00E949B01D2E0DC0F4D2F7C
S113051060E087E00E949B014C2F61E08BE591E055
S11305200E94C201412F61E08BE591E00E94C2016B
S11305304D2F61E087E00E949B01AFC0462F60E031
S113054083E00E949B0111E01C0F412F60E086E0D4
S11305500E949B01D2E0DC0F4D2F60E086E00E94F8
S11305609B014C2F61E084E00E949B01412F61E0DC
S113057084E00E949B014D2F61E085E00E949B0175
S11305808CC0462F60E080E00E949B0111E01C0FAC
S1130590412F60E086E00E949B01D2E0DC0F4D2FEA
S11305A060E086E00E949B014C2F61E083E00E94A2
S11305B09B01412F61E084E00E949B014D2F61E08B
S11305C085E00E949B0169C0462F60E081E00E94A3
S11305D09B0141E04C0F60E081E00E949B01D2E06E
S11305E0DC0F4D2F60E082E00E949B014C2F61E004
S11305F08BE591E00E94C2014D2F61E08BE591E013
S11306000E94C2014D2F61E087E00E949B0145C01A
S1130610462F60E080E00E949B0111E01C0F412FF7
S113062060E086E00E949B01D2E0DC0F4D2F60E089
S113063082E00E949B014C2F61E083E00E949B01B9
S1130640412F61E084E00E949B014D2F61E085E031
S11306500E949B0122C0462F60E080E00E949B0123
S113066011E01C0F412F60E086E00E949B01D2E064
S1130670DC0F4D2F60E082E00E949B014C2F61E073
S113068084E00E949B01412F61E084E00E949B0171
S11306904D2F61E085E00E949B01DF91CF911F9176
S11306A0089585E085BD85B1846085B908951A995A
S11306B0FECF96B516BC28B180E2822788B9913264
S11306C040F01092850160E070E080E040E050E08E
S11306D032C0809185018F5F809385018530C9F593
S11306E010928501809181019091820108951A9B55
S11306F0FECF1A99FECF96B516BC9D3010F031E0AE
S113070001C030E028B190E2922798B9883020F0F7
S113071090EF980F983018F4440F551F432B98EF1F
S1130720980F983020F098EE980F983018F4660FD0
S1130730771F632B8F5F8032D0F2609570954617D8
S1130740570751F45093820140938101842F952FD0
S1130750089580E090E0089580E090E0089586B5E3
S11307608831E8F316BC83B1582F547098B180E2F5
S1130770892788B986B58630E8F316BC40E020E0C6
S113078030E025C0220F331F98B180E2892788B951
S113079093B1947004C086B5883008F03FC083B12B
S11307A084709817C1F316BC86B58330E8F316BC81
S11307B068B180E2862788B91A9921601A9B02C021
S11307C091112FC086B58630E8F316BC4F5F4B30CD
S11307D0C8F280917F01909180012817390781F434
S11307E080917E0158130CC0809185018F5F8093A6
S11307F085018530C9F410928501822F932F0895C5
S113080080917E01581310928501309380012093CA
S11308107F0150937E01822F932F089580E090E012
S1130820089580E090E0089580E090E0089590E0DD
S113083020E030E01BC086B58031A8F51A9BFBCFC1
S113084003C086B5803190F51A99FBCF46B550E0C8
S113085016BCBA01635071096D30710550F5220F51
S1130860331F4C30510508F021609F5F9C3030F3FA
S113087080917C0190917D012817390769F480915A
S1130880850191E0980F909385018530A9F4109229
S11308908501822F932F089530937D0120937C014D
S11308A0822F932F089580E090E0089580E090E0F7
S11308B0089580E090E0089580E090E0089586B582
S11308C090E090938E0180938D0116BC80918D01F0
S11308D090918E019C01275431092530310570F423
S11308E08EE480938C0180918301909184010E9415
S11308F05703909384018093830128C09C0127505F
S113090031092230310570F482E580938C018091A5
S11309108301909184010E94AF039093840180939A
S1130920830114C04097059770F483E580938C018C
S113093080918301909184010E9417049093840113
S11309408093830103C085E580938C0180918301AA
S11309509091840110928401109283010895CF93A1
S1130960DF93CDB7DEB72B970FB6F894DEBF0FBE7B
S1130970CDBF8FEF8AB91BB80E9451030E94910624
S11309800E9453010E94D70540E060E081E00E948C
S1130990070140E060E08CE491E00E94C20140E085
S11309A061E08CE491E00E94C20160E080E00E947A
S11309B0DE0164E081E00E94DE0169E082E00E94E1
S11309C0DE016DE083E00E94DE0147E060E08DE53A
S11309D091E00E94C20147E061E080E691E00E945C
S11309E0C20143E061E081E691E00E94C2014CE073
S11309F060E081E691E00E94C20143E060E08BE5A3
S1130A0091E00E94C2014CE061E08BE591E00E941C
S1130A10C2012FEF89E698E1215080409040E1F730
S1130A2000C0000047E060E080E691E00E94C2015F
S1130A3047E061E08DE591E00E94C20143E061E09E
S1130A4081E691E00E94C2014CE060E081E691E021
S1130A500E94C20143E060E08BE591E00E94C20184
S1130A604CE061E08BE591E00E94C2012FEF89E642
S1130A7098E1215080409040E1F700C0000080E000
S1130A8090E00E946A099093900180938F0160ED39
S1130A9080E00E94F1052FEF89E698E12150804023
S1130AA09040E1F700C000000E94DB0581ED0E9448
S1130AB0E7050E940206809395010E940206809336
S1130AC093010E940206809392010E940206809381
S1130AD096010E940206809397010E940206809369
S1130AE091010E940C06809394010E94E3054091B9
S1130AF0950150E060E070E080E00E942A060E94C8
S1130B008A061A9BC4CF0E945F048C01892B09F4C6
S1130B10BECF80918A0190918B010817190761F467
S1130B2020918601309187018091880190918901FB
S1130B302817390709F4ABCF809188019091890176
S1130B409093870180938601A80160E070E080E0C3
S1130B500E942A060E948A0640E060E08CE491E04C
S1130B600E94C20140E061E08CE491E00E94C20175
S1130B701F930F9383E691E09F938F931F928BE0D3
S1130B808F93CE0101967C019F938F930E94A906B7
S1130B9040E060E0C7010E94C20110938B01009302
S1130BA08A010FB6F894DEBF0FBECDBF70CF80E2CE
S1130BB08093B800089584EA8093BC008091BC00BF
S1130BC08823E4F7089584E98093BC000895809312
S1130BD0BB0084E88093BC008091BC008823E4F7C8
S1130BE00895CF93DF93C82FD62F0E94DB058D2F56
S1130BF00E94E7058C2F0E94E7050E94E305DF9120
S1130C00CF91089584EC8093BC008091BC0088232C
S1130C10E4F78091BB00089584E88093BC00809140
S1130C20BC008823E4F78091BB0008959091C00034
S1130C3095FFFCCF8093C6000895CF93DF93EC011A
S1130C4003C021960E94160688818111FACFDF9194
S1130C50CF910895CF93DF93CDB7DEB72B970FB61F
S1130C60F894DEBF0FBECDBF9BE0E1E7F1E0DE010B
S1130C70119601900D929A95E1F7813011F092E06E
S1130C8001C094E0823031F598E024C0842F8F7045
S1130C908A3060F4E92FF0E0319621E030E02C0F47
S1130CA03D1FE20FF31F805D80830BC0E92FF0E04E
S1130CB0319621E030E02C0F3D1FE20FF31F895CD9
S1130CC08083689413F8769567955795479516949D
S1130CD0D1F791509111DACFCE0101960E941D06F1
S1130CE02B960FB6F894DEBF0FBECDBFDF91CF9128
S1130CF00895CF93DF93EC0105C02196FC01849104
S1130D000E941606CE01FE0124912111F6CFDF9137
S1130D10CF9108958DE00E9416068AE00E9416067F
S1130D2008951092C50084E38093C40088E98093F9
S1130D30C1008EE88093C2008CE790E00E9479069F
S1130D400E948A060895EE0FFF1F0590F491E02D8E
S1130D500994AEE0B0E0EFEAF6E00C948E090D8958
S1130D601E898F89988D26E02C831A83098397FF27
S1130D7002C080E090E801979E838D83AE01455EBA
S1130D805F4F698D7A8DCE0101960E94D9064D81FF
S1130D905E8157FD0AC02F813885421753070CF432
S1130DA09A01F801E20FF31F10822E96E4E00C94EE
S1130DB0AA09ABE0B0E0EFEDF6E00C9480096C0119
S1130DC07B018A01FC0117821682838181FFCCC1D9
S1130DD0CE0101963C01F6019381F70193FD8591C3
S1130DE093FF81917F01882309F4BAC1853239F4D4
S1130DF093FD859193FF81917F01853229F4B6019A
S1130E0090E00E94D008E7CF912C212C312CFFE1F7
S1130E10F315D8F08B3279F038F4803279F08332DC
S1130E20A1F4232D20611DC08D3261F0803369F45B
S1130E30232D216016C0832D8260382EE32DE460BB
S1130E403E2E2AC0F32DF8601DC037FC2DC020EDC6
S1130E50280F2A3040F08E32B9F436FC81C1232D9C
S1130E602064322E19C036FE06C08AE0989E200DFA
S1130E701124922E11C0EAE02E9E200D1124222E60
S1130E80F32DF0623F2E08C08C3621F4832D806848
S1130E90382E02C0883641F4F70193FD859193FF03
S1130EA081917F018111B3CF982F9F7D9554933009
S1130EB028F40C5F1F4F9FE399830DC0833631F0F4
S1130EC0833771F0833509F059C021C0F80180815E
S1130ED089830E5F1F4F88248394912C530113C080
S1130EE02801F2E04F0E511CF801A080B18036FEBB
S1130EF003C0692D70E002C06FEF7FEFC5010E944F
S1130F00C5084C018201F32DFF773F2E16C028013E
S1130F1022E0420E511CF801A080B18036FE03C0CD
S1130F20692D70E002C06FEF7FEFC5010E94BA081F
S1130F304C01F32DF0683F2E820133FC1BC0822D3F
S1130F4090E088169906B0F4B60180E290E00E9421
S1130F50D0082A94F4CFF50137FC859137FE8191AE
S1130F605F01B60190E00E94D00821102A9421E08C
S1130F70821A91088114910471F7E8C0843611F043
S1130F80893641F5F80137FE07C06081718182819D
S1130F9093810C5F1F4F08C060817181072E000C84
S1130FA0880B990B0E5F1F4FF32DFF763F2E97FF93
S1130FB009C090958095709561957F4F8F4F9F4F95
S1130FC0F0683F2E2AE030E0A3010E940C09882E2D
S1130FD0861845C0853731F4232D2F7EB22E2AE0A2
S1130FE030E025C0932D997FB92E8F36C1F018F4C7
S1130FF0883579F0B5C0803719F0883721F0B0C052
S1131000E92FE061BE2EB4FE0DC0FB2DF460BF2EAF
S113101009C034FE0AC0292F2660B22E06C028E07B
S113102030E005C020E130E002C020E132E0F80108
S1131030B7FE07C060817181828193810C5F1F4F6D
S113104006C06081718180E090E00E5F1F4FA301B4
S11310500E940C09882E8618FB2DFF773F2E36FE42
S11310600DC0232D2E7FA22E891458F434FE0BC0FC
S113107032FC09C0832D8E7EA82E05C0B82CA32C6B
S113108003C0B82C01C0B92CA4FE0FC0FE01E80DAA
S1131090F11D8081803321F49A2D997EA92E09C0F7
S11310A0A2FE06C0B394B39404C08A2D867809F0D6
S11310B0B394A3FC11C0A0FE06C0B21488F4280C9B
S11310C0922C9B180EC0B21460F4B60180E290E03A
S11310D00E94D008B394F7CFB21418F42B1802C0AE
S11310E0982C212CA4FE10C0B60180E390E00E944D
S11310F0D008A2FE17C0A1FC03C088E790E002C09C
S113110088E590E0B6010CC08A2D867859F0A1FEDE
S113111002C08BE201C080E2A7FC8DE2B60190E040
S11311200E94D008891438F4B60180E390E00E944C
S1131130D0089A94F7CF8A94F301E80DF11D8081C9
S1131140B60190E00E94D0088110F5CF222009F466
S113115042CEB60180E290E00E94D0082A94F6CFF5
S1131160F6018681978102C08FEF9FEF2B96E2E113
S11311700C949C09FC010590615070400110D8F753
S1131180809590958E0F9F1F0895FC0161507040CB
S113119001900110D8F7809590958E0F9F1F0895A8
S11311A00F931F93CF93DF93FB01238121FD03C092
S11311B08FEF9FEF2CC022FF16C0468157812481F8
S11311C035814217530744F4A081B1819D012F5FFB
S11311D03F4F318320838C93268137812F5F3F4F8C
S11311E03783268314C08B01EC01FB010084F18555
S11311F0E02D0995892BE1F6D80116968D919C91E5
S11312001797019617969C938E931697CE01DF91AC
S1131210CF911F910F910895FA01AA27283051F117
S1131220203181F1E8946F936E7F6E5F7F4F8F4F13
S11312309F4FAF4FB1E03ED0B4E03CD0670F781F72
S1131240891F9A1FA11D680F791F8A1F911DA11D57
S11312506A0F711D811D911DA11D20D009F4689490
S11312603F912AE0269F11243019305D3193DEF638
S1131270CF010895462F4770405D4193B3E00FD0EE
S1131280C9F7F6CF462F4F70405D4A3318F0495DD9
S113129031FD4052419302D0A9F7EACFB4E0A695BC
S11312A09795879577956795BA95C9F700976105DE
S11312B0710508959B01AC010A2E06945795479534
S11312C037952795BA95C9F7620F731F841F951F29
S11312D0A01D0895A8E1B0E042E050E00C9472092A
S11312E0DC01CB01FC01F999FECF06C0F2BDE1BDE2
S11312F0F89A319600B40D9241505040B8F70895D1
S11313002F923F924F925F926F927F928F929F9211
S1131310AF92BF92CF92DF92EF92FF920F931F93FF
S1131320CF93DF93CDB7DEB7CA1BDB0B0FB6F894B0
S1131330DEBF0FBECDBF09942A88398848885F84F0
S11313406E847D848C849B84AA84B984C884DF8061
S1131350EE80FD800C811B81AA81B981CE0FD11D45
S11313600FB6F894DEBF0FBECDBFED010895F8941B
S1051370FFCFA9
S1131372040506072B002B002B002B00070F1F1F51
S11313821F1F1F1F1F1F1F00000000001C1E1F1F06
S11313921F1F1F1F1F1F1F1F1F1F0F0700000000FB
S11313A2001F1F1F1F1F1F1F1F1F1E1C1F1F1F0089
S11313B200001F1F1F1F1F1F1F1F1F1F2020202071
S11313C2202020202020202020202020002B20004C
S11313D2202B00434F44453A2030782530325820A0
S10F13E200307820202020202020200053
S9030000FC
